:20000000FFCC3DC03CC03BC00AC239C038C037C036C035C034C033C032C031C030C0003791
:20002000003600380101010101010102040810206704BD0411241FBECFE5D2E0DEBFCDBF40
:2000400010E0A0E6B0E0ECEFFCE002C005900D92A836B107D9F720E0A8E6B0E001C01D92F9
:20006000A339B207E1F710E0C9E1D0E003C02197FE010DD5C831D107D1F718D233C6C0CF62
:20008000282F30E0F901E65DFF4F9491F901EC5DFF4FE491EE2391F0811111C08AB58F730D
:2000A0008ABDF0E0EE5DFF4FA491B0E08FB7F8942C91E92FE095E223EC938FBF089581308F
:2000C00019F48AB58F7CECCF843059F78CB58F7C8CBDE7CFEBE2F0E08491E5E2F0E0E49101
:2000E000EE2379F09AB59F7C9ABDF0E0E05EFF4FA491B0E0EC91E82381E090E021F480E0D6
:20010000089580E090E008958F929F92AF92BF92EF92FF920F931F93CF93DF93DC018A014F
:200120009B0180917B0090917C00A817B90708F040C0A90166277727F42E812E922EA32E4C
:20014000BB24D82DE02EC0918100CC2389F0EC2FF0E0842F90E0BF011ED4F92E882D90E067
:20016000BF0119D4D92F802F90E0BF0114D4E92E40918700E0918200F09183008091840008
:20018000481322C0CD0163E070E005D4E80FF91FA0918400AE0FBF2FB11DFC92A091850067
:2001A000AE0FBF2FB11DDC9380918600E80FF11DE082DF91CF911F910F91FF90EF90BF90DC
:2001C000AF909F908F900895AA0FBB1FAA0FBB1FEA0FFB1F032F112722273327902FCC2301
:2001E00021F08C2F90E0B801D6D3DF01A40FB11D9C93CECFCF93DF9390E0FC01E65DFF4F62
:2002000024918C5D9F4FFC018491882329F190E0FC01E25EFF4FE491CE2FD0E08E5D9F4F85
:20022000FC018491611109C08FB7F8949881E22FE095E923E8838FBF0FC0623081F4A82F8E
:20024000B0E09FB7F8943881822F809583238883EC91E22BEC939FBFDF91CF9108958FB7E2
:20026000F894E881E22BE6CF3FB7F8948091760090917700A0917800B09179002FB508B621
:2002800002FE05C02F3F19F00196A11DB11D3FBFBA2FA92F982F8827BC01CD01620F711D40
:2002A000811D911D42E0660F771F881F991F4A95D1F708950F931F93CF93DF9300D000D05A
:2002C00000D01F92CDB7DEB78091820090918300892B09F475C0C8DF00918800109189007D
:2002E00020918A0030918B00601771078207930740F4609388007093890080938A0090936A
:200300008B00009188001091890020918A0030918B00601B710B820B930B6C327140810591
:200320009105C8F2F89480917D0090917E009A838983E0918200F0918300DF01119680810C
:200340008F83E0918C00F0918D00908180918E00982B9E839081809589238D838D818C83ED
:2003600088E08B835E816D814F813B812C8189819A81508347FD252F3A952083262F39F081
:20038000441F00C000006083000000C0F2CF38E04D9160830000019761F7F0938D00E0938A
:2003A0008C004F833B832C839A83898378945CDF609388007093890080938A0090938B00B0
:2003C00027960FB6F894DEBF0FBECDBFDF91CF911F910F910895CF92DF92EF92FF92CF9316
:2003E000DF936B017C0140DFEB01C114D104E104F10439F4DF91CF91FF90EF90DF90CF903A
:20040000089532DF6C1B7D0B683E734070F381E0C81AD108E108F108C851DC4FE6CF789460
:200420001F920F920FB60F9211242F933F938F939F93AF93BF938091720090917300A0910B
:200440007400B0917500309171002CE7230F2D3728F02FEF230F0196A11DB11D20937100E8
:200460008093720090937300A0937400B09375008091760090917700A0917800B091790080
:200480000196A11DB11D8093760090937700A0937800B0937900BF91AF919F918F913F91FF
:2004A0002F910F900FBE0F901F901895789480B7806880BF80B7806480BF8CB580648CBDE3
:2004C0008FEF8DBD80B7807F876080BF89B7846089BF83B7887F83BF8AB58C7F81608ABD97
:2004E00083B7877F83BF83B7887F836083BF86B1876086B9379AF894789462E081E07ADE53
:2005000080917F009091800097FD05C061E072DE80917F00B5DD81E080937A00609181003E
:200520006F3111F120918200309183006150B0E0A0E029F070E08FEF9EE157D2DB01F9017C
:2005400040917D0050917E00CF01821B930B8417950738F4808190E0BD011DD29083319688
:20056000EFCF8FE180938100A5DED0E0C0E04AE05AE06AE070E0CE01C7DD2196CF30D105E9
:20058000B1F798DE64EF71E080E090E024DFD0E0C0E040E050E0BA01CE01B6DD2196CF3053
:2005A000D105B9F787DE62E370E080E090E013DF8CE087B962E070E080E090E00CDF369A30
:2005C0003699FECF84B125B1322F282F032E000C440B550B64EB7BE281E190E01AD2812CB9
:2005E000912C540120388CE0380741055105ECF0CA01B90160587C40810991092FE030E032
:2006000040E050E0D9D128EE33E040E050E001D249015A0120E182169104A104B1042CF04B
:200620008FE0882E912CA12CB12CD0E0C0E040E050E062E370E0CE0167DD2196CF30D1055A
:20064000B1F7C0E08C2F90E0B0E0A0E088159905AA05BB0544F440E052E360E070E090E0E0
:2006600053DDCF5FEFCF26DE68EE73E080E090E0B2DE30DD40916C0050916D0060916E005A
:2006800070916F00892B09F0C4C0452B462B472B99F42FB7F8948091720090917300A0911F
:2006A0007400B09175002FBF80936C0090936D00A0936E00B0936F008091680090916900BD
:2006C000A0916A00B0916B00892B8A2B8B2B81F0109268001092690010926A0010926B0015
:2006E00010926C0010926D0010926E0010926F00CAEF4C2EDCEF5D2E1EEF712EAA24AA947B
:200700000AE0B02EBBE06B2EC0917000CC5FC0937000912C812CD0E0C40161E170E03BD1B1
:200720008C0F9D1F982F8827BC0190E080E02AEF35E040E050E040D1AB01BC0150586F4F01
:200740007F4FAB01772757FD7095672FCA014E3F21E0520708F082C0242F4F3F510508F473
:200760009BC0872D841B482F60E02FEF042F10E0C801B0E0A0E0DC0199278827E62EF12C7D
:20078000A70170E060E0482B592B6A2B7B2BC22ED12CC601B0E0A0E0BA2FA92F982F8827F4
:2007A000482B592B6A2B7B2BC401AEDC8FEF881A980A2FE08216910409F0AECF4FEF5FEFB8
:2007C0006FEF70E08EE090E09FDC609181006B3009F46AC020918200309183006150B0E026
:2007E000A0E021F070E0C50100D1DB01F90140917D0050917E00CF01821B930B84179507BC
:2008000008F050C0808190E0BD01C5D090833196EECF452B462B472B09F44ECF2FB7F89496
:200820008091720090917300A0917400B09175002FBF40916C0050916D0060916E0070916D
:200840006F00841B950BA60BB70B8093680090936900A0936A00B0936B002ECF4C3F23E09A
:20086000520768F44D3F22E0520728F462E0640F2FEF40E07BCF252D241B6FEFFACF4A3F42
:2008800025E0520761F0642D641B8B3F944040F44C5F6FEF20E06ACF60E04FEF67CF60E091
:2008A00020E0FBCF6092810005DDC0916000D0916100BE0190E080E08EDD0CDC892B09F017
:2008C00023CF2596D0936100C09360001BCF10927A001092810010928800109289001092D4
:2008E0008A0010928B0081E080938700809384001092850082E0809386008DE290E090938B
:200900007E0080937D00C9D09093830080938200009751F12DE2FC0111922A95E9F78FE05F
:2009200090E090937C0080937B001092800010927F0080917A00882329F061E080E05ADCB1
:2009400080E09EDBE4E2F0E0E491F0E0EE5DFF4FE491F0E0F0938D00E0938C00EAE2F0E05A
:20096000E491E0938E00089510927E0010927D0010927C0010927B00D8CF8091820090918F
:20098000830027D180917F009091800097FD02C060E030CC08950024552704C0080E591F8A
:2009A000880F991F009729F076956795B8F37105B9F7802D952F0895EE27FF27AA27BB2764
:2009C00008C0A20FB31FE41FF51F220F331F441F551F969587957795679598F37040A9F731
:2009E000009799F7BD01CF010895AA1BBB1B51E107C0AA1FBB1FA617B70710F0A61BB70B70
:200A0000881F991F5A95A9F780959095BC01CD010895052E97FB16F400940FD057FD05D01B
:200A200014D007FC02D046F408C050954095309521953F4F4F4F5F4F089590958095709510
:200A400061957F4F8F4F9F4F0895A1E21A2EAA1BBB1BFD010DC0AA1FBB1FEE1FFF1FA217B1
:200A6000B307E407F50720F0A21BB30BE40BF50B661F771F881F991F1A9469F760957095D9
:200A8000809590959B01AC01BD01CF010895EE0FFF1F0590F491E02D09940F931F93CF9313
:200AA000DF938230910510F482E090E0E0919100F091920030E020E0B0E0A0E0309799F41D
:200AC0002115310509F44AC0281B390B24303105D8F58A819B816115710589F1FB01938326
:200AE0008283FE0111C0408151810281138148175907E0F04817590799F4109761F01296FC
:200B00000C93129713961C933296CF01DF91CF911F910F9108950093910010939200F4CFC4
:200B20002115310551F04217530738F0A901DB019A01BD01DF01F801C1CFEF01F9CF90930A
:200B4000920080939100CDCFFE01E20FF31F819391932250310939832883D7CF20918F0090
:200B600030919000232B41F420916400309165003093900020938F0020916200309163009A
:200B80002115310541F42DB73EB74091660050916700241B350BE0918F00F0919000E217D3
:200BA000F307A0F42E1B3F0B2817390778F0AC014E5F5F4F2417350748F04E0F5F1F5093B8
:200BC000900040938F00819391939FCFF0E0E0E09CCFCF93DF930097E9F0FC0132971382E3
:200BE0001282A0919100B0919200ED0130E020E01097A1F420813181820F931F20918F00BC
:200C0000309190002817390709F061C0F0939000E0938F00DF91CF910895EA01CE17DF07B2
:200C2000E8F54A815B819E0141155105B1F7E901FB83EA8349915991C40FD51FEC17FD07D6
:200C400061F4808191810296840F951FE90199838883828193819B838A83F0E0E0E01296C2
:200C60008D919C9113970097B9F52D913C911197CD010296820F931F20918F0030919000CD
:200C80002817390739F6309751F51092920010929100B0939000A0938F00BCCFD383C28377
:200CA00040815181840F951FC817D90761F44E5F5F4F88819981480F591F518340838A8157
:200CC0009B81938382832115310509F0B0CFF0939200E09391009ECFFD01DC01C0CF138274
:200CE0001282D7CF10E0C9E1D0E003C0FE01CFDE2196CA31D107D1F7F894FFCF3200000023
:200D000093008000FFFFFFFFFFFFFFFFFFFFFFFFFFFFFFFFFFFFFFFFFFFFFFFFFFFFFFFFDC
:200D2000FFFFFFFFFFFFFFFFFFFFFFFFFFFFFFFFFFFFFFFFFFFFFFFFFFFFFFFFFFFFFFFFD3
:200D4000FFFFFFFFFFFFFFFFFFFFFFFFFFFFFFFFFFFFFFFFFFFFFFFFFFFFFFFFFFFFFFFFB3
:200D6000FFFFFFFFFFFFFFFFFFFFFFFFFFFFFFFFFFFFFFFFFFFFFFFFFFFFFFFFFFFFFFFF93
:200D8000FFFFFFFFFFFFFFFFFFFFFFFFFFFFFFFFFFFFFFFFFFFFFFFFFFFFFFFFFFFFFFFF73
:2019E000FFFFFFFFFFFFFFFFFFFFFFFFFFFFFFFFFFFFFFFFFFFFFFFFFFFF9E001BC3FFFF87
:201A000016C019FA4005930B100009021200010100803209040000000000000012011001E8
:201A2000FF000008D016530706020000000111241FBECFE5D2E0CDBFDEBF20E0A0E6B0E09F
:201A400001C01D92AC38B207E1F78DC1DC0180E090E041E050EA609530E009C02D91822716
:201A60009795879510F084279527305EC8F36F5FA8F38D939D930895CF93DF93CC27C395F9
:201A8000B39BE9F7B39B0BC0B39B09C0B39B07C0B39B05C0B39B03C0B39B01C0D1C00F926E
:201AA0000F90C0916E00DD27CA58DF4F012EB39B03C00F920F90E6CF0F930F910F930F91BB
:201AC0002FEF4F6F06B303FB20F90F930F9150E03BE065C016B30126502953FDC89556B389
:201AE000012703FB25F92F7306B3B1F05027102713FB26F906B22230F0F000C016B3012730
:201B000003FB27F90126502906B22430E8F54F77206816B30000F6CF50274F7D206206B2C5
:201B2000102F000000C006B300265029102713FB26F906B2E2CF4F7B06B3206400C0DACF11
:201B400001265029187106B269F14E7F2160012F16B328C0002650294D7F06B22260102F37
:201B600029C0012650294B7F06B22460012F2DC016B301265029477F2860000006B22EC05C
:201B80004F7E06B3206130C0422706B3499300265029102706B24FEF13FB20F9297F16B3EC
:201BA00079F2187159F10126502906B2012703FB21F9237F06B371F2002650293150D0F0B1
:201BC00006B2102713FB22F9277E16B351F201265029012703FB06B223F92F7C49F20000BC
:201BE00006B3102713FB24F90026502906B22F7939F270CF10E21ABF00271DC03B50319541
:201C0000C31BD04010E21ABF0881033CE1F00B34D1F020916C001981110F1213EDCF09367B
:201C200009F10D3211F0013E39F7CAE01AB715FD02C0CA95D9F700937400CAB7C5FD1FCF45
:201C4000DF91CF910895209174002223B1F3109172001123F1F43430F2F0309372002093AF
:201C60006D0019C00091720001309CF40AE530916F0034FD11C000936F00C1E6D0E010C010
:201C8000052710E000C021C0052710E0C89508BB14C03AE501C032ED032EC0E0D0E032E0E5
:201CA00017B31861C39A08B317BB58E120E84FEF20FF052708BB279517951C3F28F7000088
:201CC0004552B0F720FF0527279508BB17951C3FB8F629913A9561F7077E10917300110FAD
:201CE00008BBC250D04011F010936C0010E21ABF086017B3177E402F477E54E05A95F1F71E
:201D000008BB17BB48BB99CFB39BFECF07D006D001D000D09B5A71B7791B71BF6FEF80E2B9
:201D20009927669576B37029809674FB67F906B203FE6623B1F70895F201309741F02AEFB6
:201D4000421629E1520629F481B790E002C08FEF9CEC21E00C0120935700E8951124CF01A2
:201D600002962C010895EAEFF9E1E491EF3F11F0E1BF000088E181BD87E081BDBB9A88EBF6
:201D80009BE0ECE9F1E03197F1F70197D1F7BB988AE580936F008FEF80936000AC9A8BB755
:201DA00080628BBF3AEC632E33E0732E312C412C512CCCE7D5E114E686B3887109F014E6BD
:201DC000115049F41092730010926C009DDF28EF622E22E0722E0AB605FE04C04DDE80E269
:201DE0008ABF02C0219741F7A895832D823069F4E0E0FAE1E054F10983E080935700E895D9
:201E00003097C1F7412C512C12C0803459F4F2013297E1152AE1F20750F485E080935700BD
:201E2000E89505C0843019F4CD2B11F4E2C0312C80917200835087FD93C090916D009D3219
:201E400009F087C0883009F084C083EC809361008AE580936F008091770080769091780062
:201E6000882381F1712C911108C082E09AE1909371008093700088E061C0913069F441144E
:201E80005104F1F080917B00807C482E50907C0081E187BFE89514C0933081F480917900F7
:201EA00090917A0049DF80917B0090917C0044DF842D8F7329F490E4392E40C09F73392EEF
:201EC00080E03CC08091790010926A00911106C010926B002AE630E082E02CC0953019F45B
:201EE0008093730019C0963089F480917A00813019F48CE19AE104C0823011F78AE09AE1AC
:201F0000909371008093700082E118C0983079F0993031F4809375002AE630E080E00AC07E
:201F200081E09A3009F080E02AE630E003C025E730E081E0309371002093700090917E00C7
:201F4000911105C090917D00981708F4892F809360001092720080917700807609F0712C7E
:201F600080916F0084FF2FC0809160008F3F59F1C82F893008F0C8E08C1B8093600090915B
:201F8000610088E8892780936100CC2381F0E0917000F0917100A2E6B0E08C2F94919D93F1
:201FA00031968150D9F7F0937100E09370006C2F82E690E04BDDCC5FCC3019F08FEF809386
:201FC0006000C0936F00C30101963C01883E934029F4EDEFF9E1E491EF3F59F40AB605FE28
:201FE000E8CE8DE1B39B8DE18150E1F780E28ABFE0CE17BA1BBE15BA84B781BB14BEFECC73
:00000001FF
